:020000040000FA
:1000000025000000080C24006000A402A407040AD4
:100010000B0C06004605CF0C02000E0A320C2E0017
:100020004604010C2A00FF0C2B00FF0C2C00EC02F4
:10003000170AEB02150AEA02130A280C8E000306BF
:10004000220A250A0607250A2C0AEE00000C8E005B
:1000500043072B0A2C0A100A4605960C2A00FF0CAF
:100060002B00FF0C2C00EC02330AEB02310AEA02EF
:100070002F0A960C2A00FF0C2B00FF0C2C00EC0220
:100080003F0AEB023D0AEA023B0A0E0AAD02030CEC
:100090008D0003074C0A4D0A520A46040300000073
:1000A0000000460A46051E0C8D000306580A5C0A2D
:1000B000030000000000460A6D000300000000007D
:0200C000460AEE
:021FFE00F30FDF
:00000001FF
