:020000040000FA
:1000000025006306040A350A0400080C2400600079
:10001000A402A407070A080C06008F0C02001E05A4
:100020002604010C3200FF0C3300FF0C3400F402F4
:10003000170AF302150AF202130A2605010C320010
:10004000FF0C3300FF0C3400F402240AF302220AEE
:10005000F202200A000C3500000C3600000C3700BC
:10006000000C3800060403000000080C06008F0C8A
:1000700002001E073C0A410A3E073F0A620A0300CB
:1000800000000605000C96000306470A4D0A070CFF
:10009000950003064C0A590A5C0AFF0C95000306FA
:1000A000520A560AB502B60203000000B502030068
:1000B0000000B50203000000750076001E043E0536
:1000C000030000000604010C98000306680A6E0A8B
:1000D000040C970003066D0A7A0A7D0A550C9700F6
:1000E0000306730A770AB702B80203000000B702DA
:1000F00003000000B70203000000770078003E0410
:060100001E0503000000D3
:021FFE00E70FEB
:00000001FF
